{
  "contractName": "AuctionExchange",
  "abi": [
    {
      "inputs": [
        {
          "internalType": "uint256",
          "name": "",
          "type": "uint256"
        }
      ],
      "name": "auctions",
      "outputs": [
        {
          "internalType": "uint256",
          "name": "id",
          "type": "uint256"
        },
        {
          "internalType": "address payable",
          "name": "seller",
          "type": "address"
        },
        {
          "internalType": "string",
          "name": "name",
          "type": "string"
        },
        {
          "internalType": "string",
          "name": "description",
          "type": "string"
        },
        {
          "internalType": "uint256",
          "name": "min",
          "type": "uint256"
        },
        {
          "internalType": "bool",
          "name": "end",
          "type": "bool"
        },
        {
          "internalType": "uint256",
          "name": "bestOfferId",
          "type": "uint256"
        }
      ],
      "stateMutability": "view",
      "type": "function"
    },
    {
      "inputs": [
        {
          "internalType": "uint256",
          "name": "",
          "type": "uint256"
        }
      ],
      "name": "offers",
      "outputs": [
        {
          "internalType": "uint256",
          "name": "id",
          "type": "uint256"
        },
        {
          "internalType": "uint256",
          "name": "auctionId",
          "type": "uint256"
        },
        {
          "internalType": "address payable",
          "name": "buyer",
          "type": "address"
        },
        {
          "internalType": "uint256",
          "name": "price",
          "type": "uint256"
        }
      ],
      "stateMutability": "view",
      "type": "function"
    },
    {
      "inputs": [
        {
          "internalType": "string",
          "name": "_name",
          "type": "string"
        },
        {
          "internalType": "string",
          "name": "_description",
          "type": "string"
        },
        {
          "internalType": "uint256",
          "name": "_min",
          "type": "uint256"
        }
      ],
      "name": "createAuction",
      "outputs": [],
      "stateMutability": "nonpayable",
      "type": "function"
    },
    {
      "inputs": [
        {
          "internalType": "uint256",
          "name": "_auctionId",
          "type": "uint256"
        }
      ],
      "name": "createOffer",
      "outputs": [],
      "stateMutability": "payable",
      "type": "function"
    },
    {
      "inputs": [
        {
          "internalType": "uint256",
          "name": "_auctionId",
          "type": "uint256"
        }
      ],
      "name": "transaction",
      "outputs": [],
      "stateMutability": "nonpayable",
      "type": "function"
    },
    {
      "inputs": [],
      "name": "getTotalAuctions",
      "outputs": [
        {
          "components": [
            {
              "internalType": "uint256",
              "name": "id",
              "type": "uint256"
            },
            {
              "internalType": "address payable",
              "name": "seller",
              "type": "address"
            },
            {
              "internalType": "string",
              "name": "name",
              "type": "string"
            },
            {
              "internalType": "string",
              "name": "description",
              "type": "string"
            },
            {
              "internalType": "uint256",
              "name": "min",
              "type": "uint256"
            },
            {
              "internalType": "bool",
              "name": "end",
              "type": "bool"
            },
            {
              "internalType": "uint256",
              "name": "bestOfferId",
              "type": "uint256"
            },
            {
              "internalType": "uint256[]",
              "name": "offerIds",
              "type": "uint256[]"
            }
          ],
          "internalType": "struct AuctionExchange.Auction[]",
          "name": "",
          "type": "tuple[]"
        }
      ],
      "stateMutability": "view",
      "type": "function"
    },
    {
      "inputs": [
        {
          "internalType": "address",
          "name": "_user",
          "type": "address"
        }
      ],
      "name": "getUserAuctions",
      "outputs": [
        {
          "components": [
            {
              "internalType": "uint256",
              "name": "id",
              "type": "uint256"
            },
            {
              "internalType": "address payable",
              "name": "seller",
              "type": "address"
            },
            {
              "internalType": "string",
              "name": "name",
              "type": "string"
            },
            {
              "internalType": "string",
              "name": "description",
              "type": "string"
            },
            {
              "internalType": "uint256",
              "name": "min",
              "type": "uint256"
            },
            {
              "internalType": "bool",
              "name": "end",
              "type": "bool"
            },
            {
              "internalType": "uint256",
              "name": "bestOfferId",
              "type": "uint256"
            },
            {
              "internalType": "uint256[]",
              "name": "offerIds",
              "type": "uint256[]"
            }
          ],
          "internalType": "struct AuctionExchange.Auction[]",
          "name": "",
          "type": "tuple[]"
        }
      ],
      "stateMutability": "view",
      "type": "function"
    },
    {
      "inputs": [
        {
          "internalType": "address",
          "name": "_user",
          "type": "address"
        }
      ],
      "name": "getUserOffers",
      "outputs": [
        {
          "components": [
            {
              "internalType": "uint256",
              "name": "id",
              "type": "uint256"
            },
            {
              "internalType": "uint256",
              "name": "auctionId",
              "type": "uint256"
            },
            {
              "internalType": "address payable",
              "name": "buyer",
              "type": "address"
            },
            {
              "internalType": "uint256",
              "name": "price",
              "type": "uint256"
            }
          ],
          "internalType": "struct AuctionExchange.Offer[]",
          "name": "",
          "type": "tuple[]"
        }
      ],
      "stateMutability": "view",
      "type": "function"
    }
  ],
  "bytecode": "0x6080604052600160045534801561001557600080fd5b50611eef806100256000396000f3fe60806040526004361061007b5760003560e01c80638a72ea6a1161004e5780638a72ea6a14610154578063a269993d14610194578063ddf20706146101b0578063ff3ad0b4146101d95761007b565b80633ef14cc81461008057806346bd0841146100ab578063571a26a0146100d4578063661d2c2c14610117575b600080fd5b34801561008c57600080fd5b50610095610216565b6040516100a29190611b6f565b60405180910390f35b3480156100b757600080fd5b506100d260048036038101906100cd9190611666565b6104fb565b005b3480156100e057600080fd5b506100fb60048036038101906100f69190611666565b610780565b60405161010e9796959493929190611c53565b60405180910390f35b34801561012357600080fd5b5061013e600480360381019061013991906115b4565b61091f565b60405161014b9190611b91565b60405180910390f35b34801561016057600080fd5b5061017b60048036038101906101769190611666565b610aaa565b60405161018b9493929190611cd0565b60405180910390f35b6101ae60048036038101906101a99190611666565b610afa565b005b3480156101bc57600080fd5b506101d760048036038101906101d291906115dd565b610d89565b005b3480156101e557600080fd5b5061020060048036038101906101fb91906115b4565b61106b565b60405161020d9190611b6f565b60405180910390f35b60608060016004540367ffffffffffffffff8111801561023557600080fd5b5060405190808252806020026020018201604052801561026f57816020015b61025c6113ad565b8152602001906001900390816102545790505b5090506000600190505b6004548110156104f35760008082815260200190815260200160002060405180610100016040529081600082015481526020016001820160009054906101000a900473ffffffffffffffffffffffffffffffffffffffff1673ffffffffffffffffffffffffffffffffffffffff1673ffffffffffffffffffffffffffffffffffffffff168152602001600282018054600181600116156101000203166002900480601f01602080910402602001604051908101604052809291908181526020018280546001816001161561010002031660029004801561039a5780601f1061036f5761010080835404028352916020019161039a565b820191906000526020600020905b81548152906001019060200180831161037d57829003601f168201915b50505050508152602001600382018054600181600116156101000203166002900480601f01602080910402602001604051908101604052809291908181526020018280546001816001161561010002031660029004801561043c5780601f106104115761010080835404028352916020019161043c565b820191906000526020600020905b81548152906001019060200180831161041f57829003601f168201915b50505050508152602001600482015481526020016005820160009054906101000a900460ff1615151515815260200160068201548152602001600782018054806020026020016040519081016040528092919081815260200182805480156104c357602002820191906000526020600020905b8154815260200190600101908083116104af575b5050505050815250508260018303815181106104db57fe5b60200260200101819052508080600101915050610279565b508091505090565b8060008111801561050d575060045481105b61054c576040517f08c379a000000000000000000000000000000000000000000000000000000000815260040161054390611bd3565b60405180910390fd5b6000806000848152602001908152602001600020905060008160060154116105a9576040517f08c379a00000000000000000000000000000000000000000000000000000000081526004016105a090611c13565b60405180910390fd5b600015158160050160009054906101000a900460ff16151514610601576040517f08c379a00000000000000000000000000000000000000000000000000000000081526004016105f890611bf3565b60405180910390fd5b60018160050160006101000a81548160ff02191690831515021790555060006001600083600601548152602001908152602001600020905060005b826007018054905081101561070a57600083600701828154811061065c57fe5b90600052602060002001549050836006015481146106fc5760006001600083815260200190815260200160002090508060020160009054906101000a900473ffffffffffffffffffffffffffffffffffffffff1673ffffffffffffffffffffffffffffffffffffffff166108fc82600301549081150290604051600060405180830381858888f193505050501580156106f9573d6000803e3d6000fd5b50505b50808060010191505061063c565b508160010160009054906101000a900473ffffffffffffffffffffffffffffffffffffffff1673ffffffffffffffffffffffffffffffffffffffff166108fc82600301549081150290604051600060405180830381858888f19350505050158015610779573d6000803e3d6000fd5b5050505050565b60006020528060005260406000206000915090508060000154908060010160009054906101000a900473ffffffffffffffffffffffffffffffffffffffff1690806002018054600181600116156101000203166002900480601f0160208091040260200160405190810160405280929190818152602001828054600181600116156101000203166002900480156108585780601f1061082d57610100808354040283529160200191610858565b820191906000526020600020905b81548152906001019060200180831161083b57829003601f168201915b505050505090806003018054600181600116156101000203166002900480601f0160208091040260200160405190810160405280929190818152602001828054600181600116156101000203166002900480156108f65780601f106108cb576101008083540402835291602001916108f6565b820191906000526020600020905b8154815290600101906020018083116108d957829003601f168201915b5050505050908060040154908060050160009054906101000a900460ff16908060060154905087565b60606000600360008473ffffffffffffffffffffffffffffffffffffffff1673ffffffffffffffffffffffffffffffffffffffff16815260200190815260200160002090506060818054905067ffffffffffffffff8111801561098157600080fd5b506040519080825280602002602001820160405280156109bb57816020015b6109a861140a565b8152602001906001900390816109a05790505b50905060005b8280549050811015610a9f5760008382815481106109db57fe5b906000526020600020015490506001600082815260200190815260200160002060405180608001604052908160008201548152602001600182015481526020016002820160009054906101000a900473ffffffffffffffffffffffffffffffffffffffff1673ffffffffffffffffffffffffffffffffffffffff1673ffffffffffffffffffffffffffffffffffffffff168152602001600382015481525050838381518110610a8657fe5b60200260200101819052505080806001019150506109c1565b508092505050919050565b60016020528060005260406000206000915090508060000154908060010154908060020160009054906101000a900473ffffffffffffffffffffffffffffffffffffffff16908060030154905084565b80600081118015610b0c575060045481105b610b4b576040517f08c379a0000000000000000000000000000000000000000000000000000000008152600401610b4290611bd3565b60405180910390fd5b60008060008481526020019081526020016000209050600060016000836006015481526020019081526020016000209050600015158260050160009054906101000a900460ff16151514610bd4576040517f08c379a0000000000000000000000000000000000000000000000000000000008152600401610bcb90611bf3565b60405180910390fd5b81600401543410158015610beb5750806003015434115b610c2a576040517f08c379a0000000000000000000000000000000000000000000000000000000008152600401610c2190611c33565b60405180910390fd5b6000600182600001540190508083600601819055508260070181908060018154018082558091505060019003906000526020600020016000909190919091505560405180608001604052808281526020018681526020013373ffffffffffffffffffffffffffffffffffffffff1681526020013481525060016000838152602001908152602001600020600082015181600001556020820151816001015560408201518160020160006101000a81548173ffffffffffffffffffffffffffffffffffffffff021916908373ffffffffffffffffffffffffffffffffffffffff16021790555060608201518160030155905050600360003373ffffffffffffffffffffffffffffffffffffffff1673ffffffffffffffffffffffffffffffffffffffff1681526020019081526020016000208190806001815401808255809150506001900390600052602060002001600090919091909150555050505050565b60008111610dcc576040517f08c379a0000000000000000000000000000000000000000000000000000000008152600401610dc390611bb3565b60405180910390fd5b6060600067ffffffffffffffff81118015610de657600080fd5b50604051908082528060200260200182016040528015610e155781602001602082028036833780820191505090505b50905060405180610100016040528060045481526020013373ffffffffffffffffffffffffffffffffffffffff16815260200187878080601f016020809104026020016040519081016040528093929190818152602001838380828437600081840152601f19601f82011690508083019250505050505050815260200185858080601f016020809104026020016040519081016040528093929190818152602001838380828437600081840152601f19601f820116905080830192505050505050508152602001838152602001600015158152602001600081526020018281525060008060045481526020019081526020016000206000820151816000015560208201518160010160006101000a81548173ffffffffffffffffffffffffffffffffffffffff021916908373ffffffffffffffffffffffffffffffffffffffff1602179055506040820151816002019080519060200190610f77929190611448565b506060820151816003019080519060200190610f94929190611448565b506080820151816004015560a08201518160050160006101000a81548160ff02191690831515021790555060c0820151816006015560e0820151816007019080519060200190610fe59291906114d6565b50905050600260003373ffffffffffffffffffffffffffffffffffffffff1673ffffffffffffffffffffffffffffffffffffffff1681526020019081526020016000206004549080600181540180825580915050600190039060005260206000200160009091909190915055600460008154809291906001019190505550505050505050565b60606000600260008473ffffffffffffffffffffffffffffffffffffffff1673ffffffffffffffffffffffffffffffffffffffff16815260200190815260200160002090506060818054905067ffffffffffffffff811180156110cd57600080fd5b5060405190808252806020026020018201604052801561110757816020015b6110f46113ad565b8152602001906001900390816110ec5790505b50905060005b82805490508110156113a257600083828154811061112757fe5b9060005260206000200154905060008082815260200190815260200160002060405180610100016040529081600082015481526020016001820160009054906101000a900473ffffffffffffffffffffffffffffffffffffffff1673ffffffffffffffffffffffffffffffffffffffff1673ffffffffffffffffffffffffffffffffffffffff168152602001600282018054600181600116156101000203166002900480601f01602080910402602001604051908101604052809291908181526020018280546001816001161561010002031660029004801561124b5780601f106112205761010080835404028352916020019161124b565b820191906000526020600020905b81548152906001019060200180831161122e57829003601f168201915b50505050508152602001600382018054600181600116156101000203166002900480601f0160208091040260200160405190810160405280929190818152602001828054600181600116156101000203166002900480156112ed5780601f106112c2576101008083540402835291602001916112ed565b820191906000526020600020905b8154815290600101906020018083116112d057829003601f168201915b50505050508152602001600482015481526020016005820160009054906101000a900460ff16151515158152602001600682015481526020016007820180548060200260200160405190810160405280929190818152602001828054801561137457602002820191906000526020600020905b815481526020019060010190808311611360575b50505050508152505083838151811061138957fe5b602002602001018190525050808060010191505061110d565b508092505050919050565b60405180610100016040528060008152602001600073ffffffffffffffffffffffffffffffffffffffff16815260200160608152602001606081526020016000815260200160001515815260200160008152602001606081525090565b60405180608001604052806000815260200160008152602001600073ffffffffffffffffffffffffffffffffffffffff168152602001600081525090565b828054600181600116156101000203166002900490600052602060002090601f01602090048101928261147e57600085556114c5565b82601f1061149757805160ff19168380011785556114c5565b828001600101855582156114c5579182015b828111156114c45782518255916020019190600101906114a9565b5b5090506114d29190611523565b5090565b828054828255906000526020600020908101928215611512579160200282015b828111156115115782518255916020019190600101906114f6565b5b50905061151f9190611523565b5090565b5b8082111561153c576000816000905550600101611524565b5090565b60008135905061154f81611e8b565b92915050565b60008083601f84011261156757600080fd5b8235905067ffffffffffffffff81111561158057600080fd5b60208301915083600182028301111561159857600080fd5b9250929050565b6000813590506115ae81611ea2565b92915050565b6000602082840312156115c657600080fd5b60006115d484828501611540565b91505092915050565b6000806000806000606086880312156115f557600080fd5b600086013567ffffffffffffffff81111561160f57600080fd5b61161b88828901611555565b9550955050602086013567ffffffffffffffff81111561163a57600080fd5b61164688828901611555565b935093505060406116598882890161159f565b9150509295509295909350565b60006020828403121561167857600080fd5b60006116868482850161159f565b91505092915050565b600061169b8383611a3e565b905092915050565b60006116af8383611afc565b60808301905092915050565b60006116c78383611b51565b60208301905092915050565b6116dc81611dff565b82525050565b6116eb81611dff565b82525050565b60006116fc82611d45565b6117068185611d98565b93508360208202850161171885611d15565b8060005b858110156117545784840389528151611735858261168f565b945061174083611d71565b925060208a0199505060018101905061171c565b50829750879550505050505092915050565b600061177182611d50565b61177b8185611da9565b935061178683611d25565b8060005b838110156117b757815161179e88826116a3565b97506117a983611d7e565b92505060018101905061178a565b5085935050505092915050565b60006117cf82611d5b565b6117d98185611dba565b93506117e483611d35565b8060005b838110156118155781516117fc88826116bb565b975061180783611d8b565b9250506001810190506117e8565b5085935050505092915050565b61182b81611e11565b82525050565b61183a81611e11565b82525050565b600061184b82611d66565b6118558185611dcb565b9350611865818560208601611e47565b61186e81611e7a565b840191505092915050565b600061188482611d66565b61188e8185611ddc565b935061189e818560208601611e47565b6118a781611e7a565b840191505092915050565b60006118bf602483611ddc565b91507f4d696e696d756d205072696365204d7573742042652047726561746f7220546860008301527f616e2030000000000000000000000000000000000000000000000000000000006020830152604082019050919050565b6000611925601183611ddc565b91507f41756374696f6e206e6f742065786973740000000000000000000000000000006000830152602082019050919050565b6000611965600d83611ddc565b91507f41756374696f6e20456e646564000000000000000000000000000000000000006000830152602082019050919050565b60006119a5601483611ddc565b91507f446f6e2774206861766520616e79204f666665720000000000000000000000006000830152602082019050919050565b60006119e5603783611ddc565b91507f5072696365206d7573742062652067726561746572207468656e206d696e696d60008301527f756d206f6666657220616e642042657374204f666665720000000000000000006020830152604082019050919050565b600061010083016000830151611a576000860182611b51565b506020830151611a6a60208601826116d3565b5060408301518482036040860152611a828282611840565b91505060608301518482036060860152611a9c8282611840565b9150506080830151611ab16080860182611b51565b5060a0830151611ac460a0860182611822565b5060c0830151611ad760c0860182611b51565b5060e083015184820360e0860152611aef82826117c4565b9150508091505092915050565b608082016000820151611b126000850182611b51565b506020820151611b256020850182611b51565b506040820151611b3860408501826116d3565b506060820151611b4b6060850182611b51565b50505050565b611b5a81611e3d565b82525050565b611b6981611e3d565b82525050565b60006020820190508181036000830152611b8981846116f1565b905092915050565b60006020820190508181036000830152611bab8184611766565b905092915050565b60006020820190508181036000830152611bcc816118b2565b9050919050565b60006020820190508181036000830152611bec81611918565b9050919050565b60006020820190508181036000830152611c0c81611958565b9050919050565b60006020820190508181036000830152611c2c81611998565b9050919050565b60006020820190508181036000830152611c4c816119d8565b9050919050565b600060e082019050611c68600083018a611b60565b611c7560208301896116e2565b8181036040830152611c878188611879565b90508181036060830152611c9b8187611879565b9050611caa6080830186611b60565b611cb760a0830185611831565b611cc460c0830184611b60565b98975050505050505050565b6000608082019050611ce56000830187611b60565b611cf26020830186611b60565b611cff60408301856116e2565b611d0c6060830184611b60565b95945050505050565b6000819050602082019050919050565b6000819050602082019050919050565b6000819050602082019050919050565b600081519050919050565b600081519050919050565b600081519050919050565b600081519050919050565b6000602082019050919050565b6000602082019050919050565b6000602082019050919050565b600082825260208201905092915050565b600082825260208201905092915050565b600082825260208201905092915050565b600082825260208201905092915050565b600082825260208201905092915050565b6000611df882611e1d565b9050919050565b6000611e0a82611e1d565b9050919050565b60008115159050919050565b600073ffffffffffffffffffffffffffffffffffffffff82169050919050565b6000819050919050565b60005b83811015611e65578082015181840152602081019050611e4a565b83811115611e74576000848401525b50505050565b6000601f19601f8301169050919050565b611e9481611ded565b8114611e9f57600080fd5b50565b611eab81611e3d565b8114611eb657600080fd5b5056fea264697066735822122024a1e258b65f476967faf4ddef6469ae4a4cf8dca3033c3e0ac447757255c89764736f6c63430007050033",
  "immutableReferences": {},
  "source": "// SPDX-License-Identifier: MIT\npragma solidity >= 0.7.0 < 0.9.0;\npragma abicoder v2; // Enable ABI coder v2\n\ncontract AuctionExchange {\n\n    struct Auction { //every auction that will create will have all this feild.\n        uint id;\n        address payable seller;\n        string name;\n        string description;\n        uint min;\n        bool end;\n        uint bestOfferId;   //who create bestOffer his id will be store here\n        uint[] offerIds;    //every offers will store here\n    }\n\n    struct Offer { //who create offer will have this feilds\n        uint id;\n        uint auctionId;\n        address payable buyer;\n        uint price;\n    }\n\n    mapping (uint => Auction) public auctions;\n    mapping (uint => Offer) public offers;\n    mapping (address => uint[]) private auctionList; //point all the auction\n    mapping (address => uint[]) private offerList;   //point all offers\n\n    uint newAuctionId = 1;\n\n    modifier auctionExist(uint _auctionId) { //to check the auction exist or not\n        require(_auctionId > 0 && _auctionId < newAuctionId, \"Auction not exist\");\n        _;\n    } \n    \n    //function to create auctions. Auction start from 1\n    function createAuction(string calldata _name, string calldata _description, uint _min) external {\n        require(_min > 0, \"Minimum Price Must Be Greator Than 0\");\n        uint[] memory offerIds = new uint[](0); //initialize offerIds from 0\n        auctions[newAuctionId] = Auction(newAuctionId, payable(msg.sender), _name, _description, _min, false, 0, offerIds);\n        auctionList[msg.sender].push(newAuctionId); //store auction in auction list\n        newAuctionId++;\n    }\n\n    //fucntion to create offer for any auction\n    function createOffer(uint _auctionId) external payable auctionExist(_auctionId) {\n        Auction storage auction = auctions[_auctionId]; \n        Offer storage bestOffer = offers[auction.bestOfferId];\n\n        require(auction.end == false, \"Auction Ended\");\n        require(msg.value >= auction.min && msg.value > bestOffer.price, \n        \"Price must be greater then minimum offer and Best Offer\");\n\n        uint newId = bestOffer.id+1; \n        auction.bestOfferId = newId;\n        auction.offerIds.push(newId);\n        offers[newId] = Offer(newId, _auctionId, payable(msg.sender), msg.value);\n        offerList[msg.sender].push(newId);\n    }\n\n    //This function will transfer value to them who not win the auction and will get value who\n    function transaction(uint _auctionId) external auctionExist(_auctionId) {\n        Auction storage auction = auctions[_auctionId];\n        require(auction.bestOfferId > 0, \"Don't have any Offer\");\n        require(auction.end == false, \"Auction Ended\");\n        auction.end = true; //it will end the auction \n\n        //it will fetch bestOfferId{number} from auction and map to the offer \n        //struct and store that Offer in bestOffer variable\n        Offer storage bestOffer = offers[auction.bestOfferId];\n\n        //Auction offerIds store all the offers in array\n        for (uint i=0; i<auction.offerIds.length; i++) \n        {//return other offers price which is not best offer\n            uint offerId = auction.offerIds[i]; \n            if (offerId != auction.bestOfferId) { \n                Offer storage offer = offers[offerId];\n                offer.buyer.transfer(offer.price);\n            }\n        }\n\n        //owner of auction get best offer price\n        auction.seller.transfer(bestOffer.price);\n    } \n\n    function getTotalAuctions() external view returns(Auction[] memory) {\n        Auction[] memory _auction = new Auction[](newAuctionId-1);\n\n        for (uint i=1; i<newAuctionId; i++) \n        {\n            _auction[i-1] = auctions[i];\n        }\n\n        return _auction;\n    }\n\n    function getUserAuctions(address _user) external view returns(Auction[] memory) {\n        uint[] storage userAuctionId = auctionList[_user];\n        Auction[] memory _auction = new Auction[](userAuctionId.length);\n        for (uint i=0; i<userAuctionId.length; i++) {\n            uint auctionId = userAuctionId[i];\n            _auction[i] = auctions[auctionId];\n        }\n        return _auction;\n    }\n\n    function getUserOffers(address _user) external view returns(Offer[] memory)  {\n        uint[] storage userOfferId = offerList[_user];\n        Offer[] memory _offer = new Offer[](userOfferId.length);\n        for (uint i=0; i<userOfferId.length; i++) \n        {\n            uint offerId = userOfferId[i];\n            _offer[i] = offers[offerId];\n        }\n        return _offer;\n    }\n}",
  "sourcePath": "/home/dbalab406/Desktop/lab10b/AuctionExchange/contracts/AuctionExchange.sol",
  "compiler": {
    "name": "solc",
    "version": "0.7.5+commit.eb77ed08.Emscripten.clang"
  },
  "schemaVersion": "3.4.16",
  "updatedAt": "2023-11-03T06:32:14.564Z",
  "devdoc": {
    "kind": "dev",
    "methods": {},
    "version": 1
  },
  "userdoc": {
    "kind": "user",
    "methods": {},
    "version": 1
  }
}